:100000000C9458000C9480000C9480000C94800098
:100010000C9480000C9480000C9480000C94800060
:100020000C9480000C9480000C9480000C94800050
:100030000C9480000C9480000C9480000C94800040
:100040000C9449080C9480000C9417080C94F10748
:100050000C9480000C9480000C9480000C94800020
:100060000C9493080C9480000000000025002800E8
:100070002B00040404040404040402020202020229
:10008000030303030303010204081020408001025C
:1000900004081020010204081020000000080002DB
:1000A0000100000304070000000000000000B20986
:1000B00011241FBECFEFD8E0DEBFCDBF12E0A0E01D
:1000C000B1E0E4E5F2E202C005900D92AC33B10775
:1000D000D9F723E0ACE3B2E001C01D92A53DB20721
:1000E000E1F710E0C8E5D0E004C02197FE010E94CE
:1000F000E90FC735D107C9F70E94130A0C942811DC
:100100000C94000081E0089508950895AF92BF9285
:10011000CF92DF92EF92FF920F931F93CF93DF93D3
:100120006C017B018B01040F151FEB015E01AE1802
:10013000BF08C017D10759F06991D601ED91FC9124
:100140000190F081E02DC6010995892B79F7C50151
:10015000DF91CF911F910F91FF90EF90DF90CF90A3
:10016000BF90AF900895FC01538D448D252F30E052
:10017000842F90E0821B930B541710F0CF960895B4
:1001800001970895FC01918D828D981761F0A28DE1
:10019000AE0FBF2FB11D5D968C91928D9F5F9F73A7
:1001A000928F90E008958FEF9FEF0895FC01918D5D
:1001B000828D981731F0828DE80FF11D858D90E0CA
:1001C00008958FEF9FEF0895FC01918D228D892F67
:1001D00090E0805C9F4F821B91098F73992708954F
:1001E0008FEF92E00E94E40021E0892B09F420E0E7
:1001F000822F089580E090E0892B29F00E94F00082
:1002000081110C9400000895FC01A48DA80FB92F52
:10021000B11DA35ABF4F2C91848D90E001968F732E
:100220009927848FA689B7892C93A089B1898C914D
:10023000837080648C93938D848D981306C002889C
:10024000F389E02D80818F7D80830895EF92FF9266
:100250000F931F93CF93DF93EC0181E0888F9B8DE9
:100260008C8D98131AC0E889F989808185FF15C0A3
:100270009FB7F894EE89FF896083E889F9898081C6
:100280008370806480839FBF81E090E0DF91CF9195
:100290001F910F91FF90EF900895F62E0B8D10E0B7
:1002A0000F5F1F4F0F731127E02E8C8D8E110CC026
:1002B0000FB607FCFACFE889F989808185FFF5CF71
:1002C000CE010E940401F1CFEB8DEC0FFD2FF11D4B
:1002D000E35AFF4FF0829FB7F8940B8FEA89FB89AE
:1002E00080818062CFCFCF93DF93EC01888D88230C
:1002F000B9F0AA89BB89E889F9898C9185FD03C089
:10030000808186FD0DC00FB607FCF7CF8C9185FF6D
:10031000F2CF808185FFEDCFCE010E940401E9CFAD
:10032000DF91CF91089590E0FC01E656FF4F2491B4
:10033000FC01EA57FF4F3491FC01EE58FF4FE49166
:10034000EE23C9F0222339F0233001F1A8F4213043
:1003500019F1223029F1F0E0EE0FFF1FE859FF4FAD
:10036000A591B4918FB7F894EC91611126C03095A6
:100370003E233C938FBF08952730A9F02830C9F061
:10038000243049F7809180008F7D03C080918000E8
:100390008F7780938000DFCF84B58F7784BDDBCFEC
:1003A00084B58F7DFBCF8091B0008F778093B000B4
:1003B000D2CF8091B0008F7DF9CF3E2BDACF3FB7FF
:1003C000F8948091850290918602A0918702B09165
:1003D000880226B5A89B05C02F3F19F00196A11DE4
:1003E000B11D3FBFBA2FA92F982F8827BC01CD017F
:1003F000620F711D811D911D42E0660F771F881FDE
:10040000991F4A95D1F708958F929F92AF92BF920C
:10041000CF92DF92EF92FF924B015C010E94DF01CD
:100420006B017C010E94DF016C197D098E099F0917
:10043000683E734081059105A8F321E0821A910876
:10044000A108B10888EEC80E83E0D81EE11CF11C9B
:1004500081149104A104B10429F7FF90EF90DF907B
:10046000CF90BF90AF909F908F9008950895BF92C6
:10047000CF92DF92EF92FF920F931F93CF93DF9370
:100480004530D8F4B42E062FEC0110E060E070E0A7
:10049000CB01B116A9F0CC24D62EE72EF82EE88198
:1004A000F9810680F781E02D602FCE010995960134
:1004B000282BC701B9011F5FECCF60E070E0CB01D2
:1004C000DF91CF911F910F91FF90EF90DF90CF9030
:1004D000BF900895089520915D02260F3327331FA2
:1004E00021323105ECF42091D502FC0190E080E04E
:1004F000243069F082E00895A0915D022191AC0161
:10050000435C5D4FA40FB52FB11D2C930196861748
:1005100098F380915D02680F60935D0280E008951A
:1005200081E008951092D50281E08093D402109268
:10053000AF0261E082E10E94930161E083E10E94E9
:100540009301E9EBF0E080818E7F808380818D7F55
:10055000808388E48093B80085E48093BC0008958C
:10056000CF93DF9391E090933C028823B9F0C09140
:10057000B800D091BA008091BC008A7B8093BC0007
:1005800060E082E10E94930160E083E10E949301B8
:100590000E949202D093BA00C093B800DF91CF912D
:1005A00008958F929F92AF92BF92CF92DF92EF9277
:1005B000FF920F931F93CF93DF93D091FE02D1321E
:1005C00008F0D7C0182FC091FD020E94DF016B0117
:1005D0007C018091D50281116BC082E08093D502AD
:1005E0001093D4028FEF8093D3021092D202D09353
:1005F000D102ADEDB2E0E1EBF2E080E0D81391C0C2
:100600001092B0028091B002CC0FC82BC093B00200
:100610008091AF02813009F088C01092AF020E9431
:10062000DF016B017C018091B0028093BB0080915F
:10063000D7029091D802A091D902B091DA02892B09
:100640008A2B8B2BA1F00E94DF010091D702109121
:10065000D8022091D9023091DA026C197D098E09F5
:100660009F09061717072807390708F442C0809129
:10067000BC0083FDD8CF85EC8093BC000E94DF01D5
:100680006B017C018091D502823009F450C08091C9
:10069000D3028F3F09F46FC08091D302803209F4F6
:1006A0006CC08091D302803309F469C084E026C015
:1006B0008091D7029091D802A091D902B091DA022C
:1006C000892B8A2B8B2B09F484CF0E94DF01809029
:1006D000D7029090D802A090D902B090DA026C199B
:1006E0007D098E099F0986169706A806B90608F0A7
:1006F00070CF8091D6020E94B00285E01092DC0299
:100700001092FE021092DB02DF91CF911F910F91A8
:10071000FF90EF90DF90CF90BF90AF909F908F9021
:1007200008959D9191938F5F69CF85EEA5CF8091BC
:10073000D7029091D802A091D902B091DA02892B08
:100740008A2B8B2B09F49ECF0E94DF010091D702E8
:100750001091D8022091D9023091DA026C197D09EA
:100760008E099F09061717072807390708F08ACF4F
:10077000C0CF81E0C3CF80E0C1CF82E0BFCF83E0B4
:10078000BDCF1F93CF93DF93FC01A6A1B7A1109714
:1007900021F1142FEC0180A591E09093DB0280936E
:1007A000FD021092DC021092FE02ED91FC91119775
:1007B0000190F081E02DCD0109958EA19FA1DC0172
:1007C000ED91FC910190F081E02D612F099581E080
:1007D000DF91CF911F910C94D102DF91CF911F91A6
:1007E0000895CF92DF92EF92FF920F931F93CF93D2
:1007F000DF93D82FC62F613208F098C00E94DF0126
:100800006B017C018091D50281116BC081E08093E6
:10081000D5028093D4029FEF9093D3021092D2021C
:100820009C0F9093D1028093B0028091B002DD0FB3
:10083000D82BD093B0028091AF02813009F078C0FC
:100840001092AF020E94DF016B017C018091B00227
:100850008093BB008091D7029091D802A091D902D9
:10086000B091DA02892B8A2B8B2BA1F00E94DF0139
:100870000091D7021091D8022091D9023091DA026A
:100880006C197D098E099F09061717072807390774
:1008900008F448C08091BC0083FDD8CF85EC8093DC
:1008A000BC000E94DF016B017C018091D502813088
:1008B00009F440C08091D2028C1710F4C091D2028A
:1008C000E1EBF2E0AFE8B2E080E08C1355C08C2F92
:1008D000DF91CF911F910F91FF90EF90DF90CF901C
:1008E00008958091D7029091D802A091D902B09139
:1008F000DA02892B8A2B8B2B09F484CF0E94DF012B
:100900000091D7021091D8022091D9023091DA02D9
:100910006C197D098E099F090617170728073907E3
:1009200008F070CF8091D6020E94B002C0E0CFCF15
:1009300085EEB5CF8091D7029091D802A091D902CF
:10094000B091DA02892B8A2B8B2B09F4AECF0E944F
:10095000DF010091D7021091D8022091D902309185
:10096000DA026C197D098E099F09061717072807F7
:10097000390708F09ACFD6CF91919D938F5FA5CF7D
:100980000895E0918E0280918D02E81730F4F0E036
:10099000E157FD4F808190E008958FEF9FEF08951C
:1009A00090918E0280918D022FEF3FEF981748F4BF
:1009B000E92FF0E0E157FD4F208130E09F5F9093F9
:1009C0008E02C901089580918D0290918E02891B3B
:1009D000990B0895CF92DF92EF92FF920F931F939E
:1009E000CF93DF937C01CB018A012091DB0222238C
:1009F00089F0EB016B01C40ED51ECC15DD0569F045
:100A00006991D701ED91FC910190F081E02DC70132
:100A10000995F3CF642F0E946B02C801DF91CF913B
:100A20001F910F91FF90EF90DF90CF900895CF939B
:100A3000DF931F92CDB7DEB769832091DB022223BB
:100A4000F9F02091FE02203258F021E030E0FC0164
:100A50003383228390E080E00F90DF91CF9108955F
:100A60008091DC02E82FF0E0E352FD4F9981908302
:100A70008F5F8093DC028093FE0281E090E0ECCFF8
:100A800061E0CE0101960E946B02F7CF90E080E01A
:100A90000895FC0101900020E9F73197AF01481B50
:100AA000590BBC018FEF92E00C9486008F929F92BD
:100AB000AF92BF920F931F93CF93DF93CDB7DEB763
:100AC000A1970FB6F894DEBF0FBECDBF19A242307A
:100AD00008F44AE08E010F5D1F4F842E912CB12C3B
:100AE000A12CA50194010E94950FE62FB901CA011E
:100AF000EA30F4F4E05DD801EE938D01232B242B32
:100B0000252B79F790E080E0109719F0CD010E9435
:100B10004905A1960FB6F894DEBF0FBECDBFDF9199
:100B2000CF911F910F91BF90AF909F908F9008959C
:100B3000E95CE1CFCF93DF930E944905EC018AE3A2
:100B400091E00E9449058C0F9D1FDF91CF91089580
:100B50004F925F926F927F928F929F92AF92BF92CD
:100B6000CF92DF92EF92FF920F931F93CF936B017F
:100B70007C01742EAC019B010E94800F882399F0A8
:100B80008DE391E0CF911F910F91FF90EF90DF9057
:100B9000CF90BF90AF909F908F907F906F905F901D
:100BA0004F900C94490546015701E894B7F82FEF90
:100BB0003FEF4FE75FE7C501B4010E94800F81114D
:100BC0000DC02FEF3FEF4FE75FE7C501B4010E9473
:100BD000B60D18161CF481E491E0D4CF2FEF3FEF4F
:100BE0004FE75FE4C701B6010E940E0F18161CF410
:100BF00085E491E0C7CF2FEF3FEF4FE75FECC701F0
:100C0000B6010E94B60D87FDF3CF20E030E0A901C8
:100C1000C701B6010E94B60D10E000E087FF0AC0D0
:100C20006DE28FEF92E00E9426018C01F7FAF094BA
:100C3000F7F8F094C0E060E070E080E09FE37C169D
:100C400041F020E030E040E251E40E94BB0DCF5F74
:100C5000F6CFA70196010E944A0D2B013C010E948C
:100C60002D0E4B015C014AE00E9456057C01E00E0E
:100C7000F11ECC23C1F1C501B4010E945C0E9B01A1
:100C8000AC01C301B2010E94490D4B015C016EE24F
:100C90008FEF92E00E942601E80EF91EC15018F174
:100CA00020E030E040E251E4C501B4010E94130F9E
:100CB0002B013C010E942D0E4B01B12CA12C4AE0CE
:100CC000C501B4010E945605E80EF91EC501B40124
:100CD0000E945C0E9B01AC01C301B2010E94490D50
:100CE0004B015C01DBCFC701CF911F910F91FF90AA
:100CF000EF90DF90CF90BF90AF909F908F907F90BC
:100D00006F905F904F900895CF92DF92EF92FF9295
:100D10000F931F93CF93DF93FC01A6A1B7A1109768
:100D2000F1F14530E0F5142FEC0180A591E09093AE
:100D3000DB028093FD021092DC021092FE02ED9124
:100D4000FC9111970190F081E02DCD01099580E093
:100D50000E94D102612F88A50E94F10310928E0299
:100D600080938D0200E060E070E0CB011017D1F0BD
:100D7000CC24D62EE72EF82E8EA19FA1DC01ED917A
:100D8000FC910284F385E02D0995BC01990F880B35
:100D9000990B6C297D298E299F290F5FE7CF60E091
:100DA00070E0CB01DF91CF911F910F91FF90EF90F9
:100DB000DF90CF900895CF92DF92EF92FF926A0179
:100DC0007B01422F682F88EA93E00E9484066C2101
:100DD0007D218E219F21CC2059F020E04C2D50E028
:100DE000C0FC05C02F5F6A01D594C794F7CFC22E0F
:100DF00004C09695879577956795CA94D2F7FF902A
:100E0000EF90DF90CF900895CF93DF93EC018EA108
:100E10009FA1009741F128A531E03093DB02209398
:100E2000FD021092DC021092FE02DC01ED91FC91B9
:100E30000190F081E02D099580E00E94D10261E0EF
:100E400088A50E94F10310928E0280938D028EA1DC
:100E50009FA1DC01ED91FC910284F385E02D0995C1
:100E6000DF91CF91089580E0FBCFCF93DF93C62F22
:100E7000682F88EA93E00E9404078C2390E020E02A
:100E80004C2F50E0C0FD05C02F5FEA01D595C795F6
:100E9000F7CF02C0959587952A95E2F7DF91CF911C
:100EA000089560E284EF0E943507811136C0809179
:100EB000C0038E3209F1843381F523E04FEF5FEFF9
:100EC0006FEF70E086EF0E94DB064091C10328E0DF
:100ED00030E0241B310904C0959587957795679577
:100EE0002A95D2F76093C2037093C3038093C4031F
:100EF0009093C50381E0089522E04FEF5FEF60E03B
:100F000070E086EF0E94DB066093C6037093C70310
:100F10008093C8039093C903EDCF80E00895CF93E9
:100F2000DF93D82FC62F64EF88EA93E00E9404076E
:100F30005D2F2C2F90E06D2F70E0D0FD05C09F5FDE
:100F400075956795D62FF7CF01C0220F9A95EAF7CE
:100F5000482F42274523482764EF88EA93E0DF9132
:100F6000CF910C94C1030E9423110C949A100C94FD
:100F70009A1085ED8093BC008091D7029091D802A1
:100F8000A091D902B091DA020796A11DB11D23E00C
:100F9000B695A795979587952A95D1F72091BC008E
:100FA00024FD03C01092D50208954091D7025091BC
:100FB000D8026091D9027091DA02452B462B472B5B
:100FC00069F30097A105B10541F025E32A95F1F7F2
:100FD00000000197A109B109E1CF8091D6020C94DC
:100FE000B0021F920F920FB60F9211242F933F93CE
:100FF0004F935F936F937F938F939F93AF93BF9321
:10100000EF93FF938FEF92E00E940401FF91EF9125
:10101000BF91AF919F918F917F916F915F914F9110
:101020003F912F910F900FBE0F901F9018951F9218
:101030000F920FB60F9211242F938F939F93EF93DC
:10104000FF93E0910F03F09110038081E09115036D
:10105000F091160382FD1BC09081809118038F5F71
:101060008F7320911903821741F0E0911803F0E08B
:10107000E150FD4F958F80931803FF91EF919F9161
:101080008F912F910F900FBE0F901F901895808118
:10109000F4CF1F920F920FB60F9211242F933F930C
:1010A0008F939F93AF93BF9380918102909182021F
:1010B000A0918302B09184023091800223E0230F3B
:1010C0002D3758F50196A11DB11D20938002809304
:1010D000810290938202A0938302B0938402809154
:1010E000850290918602A0918702B09188020196B4
:1010F000A11DB11D8093850290938602A093870263
:10110000B0938802BF91AF919F918F913F912F91A2
:101110000F900FBE0F901F90189526E8230F029690
:10112000A11DB11DD2CF1F920F920FB60F921124A5
:101130002F933F934F935F936F937F938F939F93DF
:10114000AF93BF93EF93FF938091B900887F803670
:1011500009F44AC0F0F5883209F4A7C018F58031C7
:1011600009F49BC0B8F4882309F4F9C0883009F465
:1011700094C0FF91EF91BF91AF919F918F917F911B
:101180006F915F914F913F912F910F900FBE0F90F4
:101190001F901895883109F488C0803251F78093E8
:1011A000D30214C0803409F49DC040F48033B9F3F5
:1011B0008833F9F68093D30285ECB0C0803509F40A
:1011C00085C0883509F496C0883499F60E94B9071D
:1011D000D0CF883909F48CC038F5883729F050F41D
:1011E000883611F0803729F683E08093D50210927B
:1011F0007F0257C0883809F47BC0803919F08038E5
:1012000009F0B7CF80917F02803208F071C0E09181
:101210007F0281E08E0F80937F028091BB00F0E01F
:10122000E15AFD4F80833DC0803B39F0E0F4803AC5
:1012300009F479C0883A09F09CCF84E08093D50204
:1012400010925E0210925D02E0918B02F0918C028E
:10125000099580915D0281110FC081E080935D024C
:1012600010923D0209C0803C09F4A6CF883C09F4E5
:10127000A3CF883B09F07DCFE0915E0281E08E0F25
:1012800080935E02F0E0E35CFD4F80818093BB00C1
:1012900090915E0280915D0229C08091B00280939E
:1012A000BB0085EC8093BC0064CF9091D20280910A
:1012B000D102981758F5E091D20281E08E0F809309
:1012C000D202F0E0EF54FD4F8081E9CFE091D202ED
:1012D00081E08E0F8093D2028091BB00F0E0EF544A
:1012E000FD4F80839091D2028091D1029817C8F26D
:1012F00085E8D8CFE091D20281E08E0F8093D202B0
:101300008091BB00F0E0EF54FD4F80838091D402C8
:1013100081115CCF81E08093AF0284EA8093BC00AE
:101320001092D50226CF85EC8093BC001092D50296
:1013300080917F02803230F4E0917F02F0E0E15A48
:10134000FD4F108260917F0270E0E0918902F09180
:101350008A028FE592E0099510927F020ACF1092DF
:10136000D30234CFCF93DF93EFEFF2E013821282F8
:1013700048EE53E060E070E04483558366837783F2
:101380008AE091E09183808385EC90E09587848763
:1013900084EC90E09787868780EC90E0918B808B3F
:1013A00081EC90E0938B828B82EC90E0958B848B28
:1013B00086EC90E0978B868B118E128E138E148E96
:1013C000ACE9B3E013961C921E92129714964D93BB
:1013D0005D936D937C9317978CE191E011969C93AC
:1013E0008E93E8EAF3E0108E118E128E138E148E17
:1013F000158E168E178E10A211A212A213A214A27D
:1014000015A22AEA33E086E1E90119928A95E9F703
:10141000B7A3A6A387E780A78EE291E0918380839C
:10142000DF91CF910895CF93DF93CDB7DEB76C975F
:101430000FB6F894DEBF0FBECDBF789484B582603E
:1014400084BD84B5816084BD85B5826085BD85B568
:10145000816085BD80916E00816080936E001092E6
:101460008100809181008260809381008091810061
:1014700081608093810080918000816080938000F2
:101480008091B10084608093B1008091B000816050
:101490008093B00080917A00846080937A0080917C
:1014A0007A00826080937A0080917A0081608093D4
:1014B0007A0080917A00806880937A001092C1004F
:1014C000E0910F03F091100382E08083E0910B0321
:1014D000F0910C031082E0910D03F0910E038FEC5C
:1014E000808310921703E0911303F091140386E0B8
:1014F0008083E0911103F0911203808180618083E9
:10150000E0911103F0911203808188608083E09163
:101510001103F0911203808180688083E0911103B0
:10152000F091120380818F7D808310928E02109241
:101530008D021092DC021092FE020E94920284E858
:1015400090E090938C0280938B0285E890E09093DA
:101550008A02809389026FEF80ED0E9435078535FE
:1015600009F073C222E04FEF5FEF60E070E08AEABB
:101570000E94DB062B0122E04FEF5FEF60E070E09E
:101580008CEA0E94DB0669837A838B839C8322E04A
:101590004FEF5FEF60E070E08EEA0E94DB066D8344
:1015A0007E838F83988722E04FEF5FEF60E070E0EB
:1015B00080EB0E94DB0669877A878B879C8722E015
:1015C0004FEF5FEF60E070E082EB0E94DB066D871B
:1015D0007E878F87988B22E04FEF5FEF60E070E0AF
:1015E00084EB0E94DB06698B7A8B8B8B9C8B22E0D1
:1015F0004FEF5FEF60E070E086EB0E94DB066D8BE3
:101600007E8B8F8B988F22E04FEF5FEF60E070E072
:1016100088EB0E94DB06698F7A8F8B8F9C8F22E08C
:101620004FEF5FEF60E070E08AEB0E94DB064B015A
:1016300022E04FEF5FEF60E070E08CEB0E94DB0692
:101640006B0122E04FEF5FEF60E070E08EEB0E94F5
:10165000DB065092AB034092AA0329813A81309372
:10166000AD032093AC034D815E815093AF03409353
:10167000AE0329853A853093B1032093B0034D859D
:101680005E855093B3034093B20329893A8930931E
:10169000B5032093B4034D895E895093B7034093FB
:1016A000B603298D3A8D3093B9032093B8039092F5
:1016B000BB038092BA03D092BD03C092BC03709367
:1016C000BF036093BE0346EB60EE88EA93E00E949E
:1016D000C10383E08093C1030EE214E368EE73E07C
:1016E00080E090E00E94040260E284EF0E943507EF
:1016F0008111B0C10093C0036EE28FE30E948F0797
:1017000064E670E080E090E00E9404020E945107CD
:101710008823B1F381ED91E00E9449058091B403E3
:101720009091B5032091C6033091C7034091C8033F
:101730005091C903281B390B41095109A091B203EB
:10174000B091B3030E94D60F6B017C013FE0F5948A
:10175000E794D794C7943A95D1F76091BC03709100
:10176000BD03072E000C880B990B4BE0660F771F0B
:10177000881F991F4A95D1F72091BE033091BF036E
:10178000032E000C440B550B2C0D3D1D4E1D5F1DF3
:101790000E94B70FC20ED31EE41EF51EC092CA03EC
:1017A000D092CB03E092CC03F092CD03A701960137
:1017B000285F3F4F4F4F5F4FCA01B90154E09595E5
:1017C0008795779567955A95D1F70E945E0E2DEC17
:1017D0003CEC4CEC5DE30E94130F42E00E94A80534
:1017E0008FED91E00E949A0560E284EF0E94350738
:1017F000811141C11093C0036091C10330E4639F24
:10180000B001112464638FEF0E948F0764E670E0DB
:1018100080E090E00E9404020E9451078823B1F307
:101820008DE292E00E9449058090CA039090CB031C
:10183000A090CC03B090CD0340EA841A4FE0940A04
:10184000A108B108A5019401C501B4010E94850F4A
:101850002B013C01FCE07594679457944794FA95EA
:10186000D1F7E091C103A091AE03B091AF030E9404
:10187000E10F6B017C01ADE0F594E794D794C79438
:10188000AA95D1F7A091B603B091B703A301920135
:101890000E94E10F9C01552737FD5095452F2C0DD7
:1018A0003D1D4E1D5F1D2E5F3F4F4F4F5F4F82E02E
:1018B00055954795379527958A95D1F730584F4FCD
:1018C0005F4FA091B003B091B1030E94D60F6B019E
:1018D0007C019FE0F694E794D794C7949A95D1F74A
:1018E000A091B803B091B903A30192010E94E10F46
:1018F0009B01AC016BE055954795379527956A9507
:10190000D1F729833A834B835C83A091AC03B091D8
:10191000AD03A50194010E94E10FDC01CB017BE046
:10192000B595A795979587957A95D1F729813A81AD
:101930004B815C81820F931FA41FB51F2091AA03C6
:101940003091AB03032E000C440B550BF2E0220F39
:10195000331F441F551FFA95D1F7820F931FA41F01
:10196000B51F0E2E04C0880F991FAA1FBB1F0A9413
:10197000D2F70296A11DB11D22E0B595A7959795C6
:1019800087952A95D1F72091C2033091C3034091E6
:10199000C4035091C503281B390B4A0B5B0B60E550
:1019A00073EC80E090E004C09595879577956795F6
:1019B000EA95D2F70E94850F97FD60C0660F771FEA
:1019C000881F991FA70196010E94950F69017A014E
:1019D0009927F7FC9A958F2D7E2D6D2D9B01AC01DB
:1019E0000E94850F9B01AC01AEEDBBE00E94D60FBB
:1019F0004B015C01A3E4B3EEA70196010E94E40F42
:101A0000BC01992777FD9095892F4501BB2497FC50
:101A1000B094AB2C680D791D8A1D9B1D6153714FCD
:101A20008F4F9F4F44E095958795779567954A9599
:101A3000D1F76C0D7D1D8E1D9F1D0E945E0E42E034
:101A40000E94A80588E392E007C089E491E00E9423
:101A50009A05FFCF86E891E00E949A0540E050E0A9
:101A6000452B09F43BCE0E94F000882309F436CEC2
:101A70000E94000033CE85EE91E0EECFA7019601E3
:101A80000E94950F69017A01CC0CDD1CEE1CFF1C35
:101A90009FCF5058BB27AA270E94610D0C94D40EEB
:101AA0000E94C60E38F00E94CD0E20F039F49F3F00
:101AB00019F426F40C94C30E0EF4E095E7FB0C9495
:101AC000BD0EE92F0E94E50E58F3BA17620773079F
:101AD0008407950720F079F4A6F50C94070F0EF40F
:101AE000E0950B2EBA2FA02D0B01B90190010C012E
:101AF000CA01A0011124FF27591B99F0593F50F446
:101B0000503E68F11A16F040A22F232F342F44279D
:101B1000585FF3CF469537952795A795F040539595
:101B2000C9F77EF41F16BA0B620B730B840BBAF065
:101B30009150A1F0FF0FBB1F661F771F881FC2F7D0
:101B40000EC0BA0F621F731F841F48F487957795E4
:101B50006795B795F7959E3F08F0B0CF9395880F9E
:101B600008F09927EE0F9795879508950E94990E92
:101B700008F481E008950E94CF0D0C94D40E0E94C9
:101B8000CD0E58F00E94C60E40F029F45F3F29F0B8
:101B90000C94BD0E51110C94080F0C94C30E0E94AE
:101BA000E50E68F39923B1F3552391F3951B550B7B
:101BB000BB27AA2762177307840738F09F5F5F4F20
:101BC000220F331F441FAA1FA9F335D00E2E3AF05F
:101BD000E0E832D091505040E695001CCAF72BD077
:101BE000FE2F29D0660F771F881FBB1F26173707C8
:101BF0004807AB07B0E809F0BB0B802DBF01FF27FA
:101C000093585F4F3AF09E3F510578F00C94BD0E0B
:101C10000C94080F5F3FE4F3983ED4F386957795D4
:101C20006795B795F7959F5FC9F7880F911D9695B2
:101C3000879597F90895E1E0660F771F881FBB1F0E
:101C4000621773078407BA0720F0621B730B840BBB
:101C5000BA0BEE1F88F7E09508950E94ED0E88F00C
:101C60009F5798F0B92F9927B751B0F0E1F0660F60
:101C7000771F881F991F1AF0BA95C9F714C0B130A1
:101C800091F00E94070FB1E008950C94070F672FA1
:101C9000782F8827B85F39F0B93FCCF386957795D0
:101CA0006795B395D9F73EF49095809570956195B9
:101CB0007F4F8F4F9F4F0895E89409C097FB3EF4E4
:101CC00090958095709561957F4F8F4F9F4F992389
:101CD000A9F0F92F96E9BB279395F6958795779507
:101CE0006795B795F111F8CFFAF4BB0F11F460FFC7
:101CF0001BC06F5F7F4F8F4F9F4F16C0882311F01F
:101D000096E911C0772321F09EE8872F762F05C032
:101D1000662371F096E8862F70E060E02AF09A95CD
:101D2000660F771F881FDAF7880F9695879597F9C2
:101D30000895990F0008550FAA0BE0E8FEEF16165C
:101D40001706E807F907C0F012161306E407F507AF
:101D500098F0621B730B840B950B39F40A2661F023
:101D6000232B242B252B21F408950A2609F4A140C6
:101D7000A6958FEF811D811D089597F99F6780E8D3
:101D800070E060E008959FEF80EC089500240A94CD
:101D90001616170618060906089500240A94121646
:101DA0001306140605060895092E0394000C11F479
:101DB000882352F0BB0F40F4BF2B11F460FF04C026
:101DC0006F5F7F4F8F4F9F4F089557FD9058440F7F
:101DD000551F59F05F3F71F04795880F97FB991F8A
:101DE00061F09F3F79F08795089512161306140647
:101DF000551FF2CF4695F1DF08C0161617061806D4
:101E0000991FF1CF86957105610508940895E894AE
:101E1000BB2766277727CB0197F908950E94990E73
:101E200008F48FEF08950E94260F0C94D40E0E94A0
:101E3000C60E38F00E94CD0E20F0952311F00C94C0
:101E4000BD0E0C94C30E11240C94080F0E94E50ED5
:101E500070F3959FC1F3950F50E0551F629FF001FD
:101E6000729FBB27F00DB11D639FAA27F00DB11D16
:101E7000AA1F649F6627B00DA11D661F829F22279F
:101E8000B00DA11D621F739FB00DA11D621F839F26
:101E9000A00D611D221F749F3327A00D611D231FFC
:101EA000849F600D211D822F762F6A2F11249F574A
:101EB00050409AF0F1F088234AF0EE0FFF1FBB1F4D
:101EC000661F771F881F91505040A9F79E3F51050C
:101ED00080F00C94BD0E0C94080F5F3FE4F3983E25
:101EE000D4F3869577956795B795F795E7959F5FB6
:101EF000C1F7FE2B880F911D9695879597F9089548
:101F00000E94990E880B990B0895DB018F939F9384
:101F10000E94D60FBF91AF91A29F800D911DA39FEC
:101F2000900DB29F900D11240895A1E21A2EAA1BC4
:101F3000BB1BFD010DC0AA1FBB1FEE1FFF1FA21779
:101F4000B307E407F50720F0A21BB30BE40BF50B76
:101F5000661F771F881F991F1A9469F760957095FF
:101F6000809590959B01AC01BD01CF010895052E90
:101F700097FB1EF400940E94CE0F57FD07D00E94DD
:101F8000950F07FC03D04EF40C94CE0F509540955E
:101F9000309521953F4F4F4F5F4F08959095809515
:101FA000709561957F4F8F4F9F4F08950E94EF0F5F
:101FB000A59F900DB49F900DA49F800D911D11249D
:101FC0000895B7FF0C94D60F0E94D60F821B930B77
:101FD0000895EE0FFF1F0590F491E02D0994A29F44
:101FE000B001B39FC001A39F700D811D1124911DED
:101FF000B29F700D811D1124911D08950F931F93A1
:10200000CF93DF938230910510F482E090E0E0916D
:10201000D303F091D40330E020E0B0E0A0E03097AB
:1020200099F42115310509F44AC0281B390B2430D5
:102030003105D8F58A819B816115710589F1FB0114
:1020400093838283FE0111C04081518102811381FB
:1020500048175907E0F04817590799F4109761F0AD
:1020600012960C93129713961C933296CF01DF9120
:10207000CF911F910F9108950093D3031093D40330
:10208000F4CF2115310551F04217530738F0A9015B
:10209000DB019A01BD01DF01F801C1CFEF01F9CFEA
:1020A0009093D4038093D303CDCFFE01E20FF31FAF
:1020B000819391932250310939832883D7CF20917E
:1020C000D1033091D203232B41F4209102013091AE
:1020D00003013093D2032093D1032091000130916A
:1020E00001012115310541F42DB73EB7409104019E
:1020F00050910501241B350BE091D103F091D203DF
:10210000E217F307A0F42E1B3F0B2817390778F0CE
:10211000AC014E5F5F4F2417350748F04E0F5F1F2D
:102120005093D2034093D103819391939FCFF0E0DA
:10213000E0E09CCFCF93DF930097E9F0FC0132976A
:1021400013821282A091D303B091D403ED0130E049
:1021500020E01097A1F420813181820F931F2091FC
:10216000D1033091D2032817390709F061C0F093E9
:10217000D203E093D103DF91CF910895EA01CE1706
:10218000DF07E8F54A815B819E0141155105B1F7F2
:10219000E901FB83EA8349915991C40FD51FEC17DC
:1021A000FD0761F4808191810296840F951FE901FA
:1021B00099838883828193819B838A83F0E0E0E026
:1021C00012968D919C9113970097B9F52D913C91A2
:1021D0001197CD010296820F931F2091D103309168
:1021E000D2032817390739F6309751F51092D403E6
:1021F0001092D303B093D203A093D103BCCFD38367
:10220000C28340815181840F951FC817D90761F49B
:102210004E5F5F4F88819981480F591F51834083DA
:102220008A819B81938382832115310509F0B0CF88
:10223000F093D403E093D3039ECFFD01DC01C0CF24
:1022400013821282D7CF81E090E0F8940C94281189
:04225000F894FFCF30
:102254000000D50380000000000026018600B300C2
:102264007301E400C200D600000000001705EA0470
:102274004605C004E304D004C104000000006A025F
:10228400B707820004078406C1030D0A006E616E5D
:1022940000696E66006F766600626567696E28295C
:1022A400206661696C65642E20636865636B2079C0
:1022B4006F757220424D5031383020496E7465720A
:1022C4006661636520616E64204932432041646421
:1022D400726573732E00636F756C64206E6F742067
:1022E40073746172742074656D7065726174757253
:1022F40065206D6561737572656D656E742C2069FA
:10230400732061206D6561737572656D656E7420EF
:10231400616C72656164792072756E6E696E673F77
:102324000054656D70657261747572653A200020A1
:102334006465674300636F756C64206E6F7420730B
:1023440074617274207065727373757265206D6543
:1023540061737572656D656E742C206973206120DC
:102364006D6561737572656D656E7420616C7265FF
:102374006164792072756E6E696E673F0050726594
:0C23840073737572653A200020506100F0
:00000001FF
