:100000000C9435000C945D000C945D000C945D0024
:100010000C945D000C945D000C945D000C945D00EC
:100020000C945D000C945D000C945D000C945D00DC
:100030000C945D000C945D000C945D000C945D00CC
:100040000C9416030C945D000C94E4020C94BE0214
:100050000C945D000C945D000C945D000C945D00AC
:100060000C945D000C945D00640411241FBECFEF5E
:10007000D8E0DEBFCDBF11E0A0E0B1E0EEEEFDE0E4
:1000800002C005900D92A835B107D9F721E0A8E587
:10009000B1E001C01D92AE3FB207E1F710E0C5E349
:1000A000D0E004C02197FE010E94EF06C433D107BF
:1000B000C9F70E9460030C94F5060C940000AF92FF
:1000C000BF92CF92DF92EF92FF920F931F93CF9345
:1000D000DF936C017B018B01040F151FEB015E01A7
:1000E000AE18BF08C017D10759F06991D601ED913C
:1000F000FC910190F081E02DC6010995892B79F7DB
:10010000C501DF91CF911F910F91FF90EF90DF908C
:10011000CF90BF90AF900895FC01538D448D252F53
:1001200030E0842F90E0821B930B541710F0CF9691
:10013000089501970895FC01918D828D981761F0C3
:10014000A28DAE0FBF2FB11D5D968C91928D9F5FDA
:100150009F73928F90E008958FEF9FEF0895FC01B9
:10016000918D828D981731F0828DE80FF11D858D6C
:1001700090E008958FEF9FEF0895FC01918D228DFF
:10018000892F90E0805C9F4F821B91098F73992784
:10019000089581E691E00E94BD0021E0892B09F4D9
:1001A00020E0822F089580E090E0892B29F00E94C2
:1001B000C90081110C9400000895FC01A48DA80FC2
:1001C000B92FB11DA35ABF4F2C91848D90E0019699
:1001D0008F739927848FA689B7892C93A089B189B9
:1001E0008C91837080648C93938D848D981306C05A
:1001F0000288F389E02D80818F7D80830895EF92BE
:10020000FF920F931F93CF93DF93EC0181E0888FD0
:100210009B8D8C8D98131AC0E889F989808185FFA0
:1002200015C09FB7F894EE89FF896083E889F98942
:1002300080818370806480839FBF81E090E0DF9144
:10024000CF911F910F91FF90EF900895F62E0B8D97
:1002500010E00F5F1F4F0F731127E02E8C8D8E1152
:100260000CC00FB607FCFACFE889F989808185FFB9
:10027000F5CFCE010E94DD00F1CFEB8DEC0FFD2F0D
:10028000F11DE35AFF4FF0829FB7F8940B8FEA8974
:10029000FB8980818062CFCFCF93DF93EC01888D83
:1002A0008823B9F0AA89BB89E889F9898C9185FDF1
:1002B00003C0808186FD0DC00FB607FCF7CF8C917F
:1002C00085FFF2CF808185FFEDCFCE010E94DD005A
:1002D000E9CFDF91CF9108953FB7F89480915D0108
:1002E00090915E01A0915F01B091600126B5A89B3D
:1002F00005C02F3F19F00196A11DB11D3FBFBA2FB8
:10030000A92F982F8827BC01CD01620F711D811D77
:10031000911D42E0660F771F881F991F4A95D1F7FC
:100320000895FC0101900020E9F73197AF01481BC7
:10033000590BBC0181E691E00C945F008F929F9273
:10034000AF92BF920F931F93CF93DF93CDB7DEB7DA
:10035000A1970FB6F894DEBF0FBECDBF19A24230F1
:1003600008F44AE08E010F5D1F4F842E912CB12CB2
:10037000A12CA50194010E94CD06E62FB901CA0166
:10038000EA30F4F4E05DD801EE938D01232B242BA9
:10039000252B79F790E080E0109719F0CD010E94AD
:1003A0009101A1960FB6F894DEBF0FBECDBFDF91CD
:1003B000CF911F910F91BF90AF909F908F90089514
:1003C000E95CE1CF4F925F926F927F928F929F9202
:1003D000AF92BF92CF92DF92EF92FF920F931F9353
:1003E000CF936B017C01742EAC019B010E94C80667
:1003F000882399F082E191E0CF911F910F91FF90B6
:10040000EF90DF90CF90BF90AF909F908F907F90B4
:100410006F905F904F900C94910146015701E894C2
:10042000B7F82FEF3FEF4FE75FE7C501B4010E9438
:10043000C80681110DC02FEF3FEF4FE75FE7C50101
:10044000B4010E94FE0418161CF486E191E0D4CF9A
:100450002FEF3FEF4FE75FE4C701B6010E9456065A
:1004600018161CF48AE191E0C7CF2FEF3FEF4FE75A
:100470005FECC701B6010E94FE0487FDF3CF20E0C8
:1004800030E0A901C701B6010E94FE0410E000E0BF
:1004900087FF0AC06DE281E691E00E94FF008C01B7
:1004A000F7FAF094F7F8F094C0E060E070E080E0D4
:1004B0009FE37C1641F020E030E040E251E40E94EE
:1004C0000305CF5FF6CFA70196010E9492042B018E
:1004D0003C010E9475054B015C014AE00E949E01AF
:1004E0007C01E00EF11ECC23C1F1C501B4010E94D4
:1004F000A4059B01AC01C301B2010E9491044B0110
:100500005C016EE281E691E00E94FF00E80EF91EB8
:10051000C15018F120E030E040E251E4C501B401DF
:100520000E945B062B013C010E9475054B01B12C1A
:10053000A12C4AE0C501B4010E949E01E80EF91EFB
:10054000C501B4010E94A4059B01AC01C301B20125
:100550000E9491044B015C01DBCFC701CF911F9139
:100560000F91FF90EF90DF90CF90BF90AF909F9052
:100570008F907F906F905F904F9008951F920F9291
:100580000FB60F9211242F933F934F935F936F9366
:100590007F938F939F93AF93BF93EF93FF9381E6E6
:1005A00091E00E94DD00FF91EF91BF91AF919F918B
:1005B0008F917F916F915F914F913F912F910F900C
:1005C0000FBE0F901F9018951F920F920FB60F92AB
:1005D00011242F938F939F93EF93FF93E0917101D9
:1005E000F09172018081E0917701F091780182FDB4
:1005F0001BC0908180917A018F5F8F7320917B0166
:10060000821741F0E0917A01F0E0EF59FE4F958FAB
:1006100080937A01FF91EF919F918F912F910F908D
:100620000FBE0F901F9018958081F4CF1F920F92EC
:100630000FB60F9211242F933F938F939F93AF93F5
:10064000BF938091590190915A01A0915B01B091A3
:100650005C013091580123E0230F2D3758F50196A6
:10066000A11DB11D209358018093590190935A0107
:10067000A0935B01B0935C0180915D0190915E015C
:10068000A0915F01B09160010196A11DB11D809301
:100690005D0190935E01A0935F01B0936001BF91F3
:1006A000AF919F918F913F912F910F900FBE0F901F
:1006B0001F90189526E8230F0296A11DB11DD2CFD9
:1006C000789484B5826084BD84B5816084BD85B52D
:1006D000826085BD85B5816085BD80916E00816039
:1006E00080936E00109281008091810082608093DF
:1006F00081008091810081608093810080918000E1
:100700008160809380008091B10084608093B1000B
:100710008091B00081608093B00080917A00846005
:1007200080937A0080917A00826080937A00809131
:100730007A00816080937A0080917A00806880934B
:100740007A001092C100E0917101F091720182E093
:100750008083E0916D01F0916E011082E0916F0154
:10076000F09170018FEC808310927901E091750116
:10077000F091760186E08083E0917301F09174013D
:10078000808180618083E0917301F09174018081A8
:1007900088608083E0917301F091740180818068AA
:1007A0008083E0917301F091740180818F7D80835B
:1007B00010E4C0E0D0E010937C0080917A00806467
:1007C00080937A0080917A0086FDFCCF809178003A
:1007D00060917900762F682F072E000C880B990BFB
:1007E0000E94A60520E030E040E85AE30E945B0644
:1007F00020E030E04AEF53E40E945B066B017C018D
:100800008EE191E00E94910142E0C701B6010E9491
:10081000E20187E391E00E9491018AE391E00E9466
:10082000910184E491E00E94910120E030E040E1F8
:1008300051E4C701B6010E945B0620E030E040EAC7
:1008400050E40E94030520E030E040E052E40E94C2
:10085000920442E00E94E20182E591E00E9491014F
:1008600085E591E00E9491010E946C014B015C01C1
:1008700088EEC82E83E0D82EE12CF12C0E946C016A
:10088000681979098A099B09683E734081059105B9
:10089000A8F321E0C21AD108E108F10888EE880E19
:1008A00083E0981EA11CB11CC114D104E104F10421
:1008B00029F7209709F47FCF0E94C900882309F403
:1008C0007ACF0E94000077CFE1E6F1E01382128236
:1008D00088EE93E0A0E0B0E084839583A683B7839D
:1008E00084E091E09183808385EC90E09587848714
:1008F00084EC90E09787868780EC90E0918B808BEA
:1009000081EC90E0938B828B82EC90E0958B848BD2
:1009100086EC90E0978B868B118E128E138E148E40
:1009200008955058BB27AA270E94A9040C941C06BE
:100930000E940E0638F00E94150620F039F49F3F01
:1009400019F426F40C940B060EF4E095E7FB0C94D6
:100950000506E92F0E942D0658F3BA1762077307A0
:100960008407950720F079F4A6F50C944F060EF451
:10097000E0950B2EBA2FA02D0B01B90190010C01AF
:10098000CA01A0011124FF27591B99F0593F50F4C7
:10099000503E68F11A16F040A22F232F342F44271F
:1009A000585FF3CF469537952795A795F040539517
:1009B000C9F77EF41F16BA0B620B730B840BBAF0E7
:1009C0009150A1F0FF0FBB1F661F771F881FC2F752
:1009D0000EC0BA0F621F731F841F48F48795779566
:1009E0006795B795F7959E3F08F0B0CF9395880F20
:1009F00008F09927EE0F9795879508950E94E105D5
:100A000008F481E008950E9417050C941C060E94CA
:100A1000150658F00E940E0640F029F45F3F29F0B9
:100A20000C94050651110C9450060C940B060E9470
:100A30002D0668F39923B1F3552391F3951B550BBC
:100A4000BB27AA2762177307840738F09F5F5F4FA1
:100A5000220F331F441FAA1FA9F335D00E2E3AF0E0
:100A6000E0E832D091505040E695001CCAF72BD0F8
:100A7000FE2F29D0660F771F881FBB1F2617370749
:100A80004807AB07B0E809F0BB0B802DBF01FF277B
:100A900093585F4F3AF09E3F510578F00C9405064D
:100AA0000C9450065F3FE4F3983ED4F38695779517
:100AB0006795B795F7959F5FC9F7880F911D969534
:100AC000879597F90895E1E0660F771F881FBB1F90
:100AD000621773078407BA0720F0621B730B840B3D
:100AE000BA0BEE1F88F7E09508950E94350688F04E
:100AF0009F5798F0B92F9927B751B0F0E1F0660FE2
:100B0000771F881F991F1AF0BA95C9F714C0B13022
:100B100091F00E944F06B1E008950C944F06672FA4
:100B2000782F8827B85F39F0B93FCCF38695779551
:100B30006795B395D9F73EF490958095709561953A
:100B40007F4F8F4F9F4F0895E89409C097FB3EF465
:100B500090958095709561957F4F8F4F9F4F99230A
:100B6000A9F0F92F96E9BB279395F6958795779588
:100B70006795B795F111F8CFFAF4BB0F11F460FF48
:100B80001BC06F5F7F4F8F4F9F4F16C0882311F0A0
:100B900096E911C0772321F09EE8872F762F05C0B4
:100BA000662371F096E8862F70E060E02AF09A954F
:100BB000660F771F881FDAF7880F9695879597F944
:100BC0000895990F0008550FAA0BE0E8FEEF1616DE
:100BD0001706E807F907C0F012161306E407F50731
:100BE00098F0621B730B840B950B39F40A2661F0A5
:100BF000232B242B252B21F408950A2609F4A14048
:100C0000A6958FEF811D811D089597F99F6780E854
:100C100070E060E008959FEF80EC089500240A944E
:100C20001616170618060906089500240A941216C7
:100C30001306140605060895092E0394000C11F4FA
:100C4000882352F0BB0F40F4BF2B11F460FF04C0A7
:100C50006F5F7F4F8F4F9F4F089557FD9058440F00
:100C6000551F59F05F3F71F04795880F97FB991F0B
:100C700061F09F3F79F087950895121613061406C8
:100C8000551FF2CF4695F1DF08C016161706180655
:100C9000991FF1CF86957105610508940895E89430
:100CA000BB2766277727CB0197F908950E94E105B6
:100CB00008F48FEF08950E946E060C941C060E94A3
:100CC0000E0638F00E94150620F0952311F00C94C2
:100CD00005060C940B0611240C9450060E942D0658
:100CE00070F3959FC1F3950F50E0551F629FF0017F
:100CF000729FBB27F00DB11D639FAA27F00DB11D98
:100D0000AA1F649F6627B00DA11D661F829F222720
:100D1000B00DA11D621F739FB00DA11D621F839FA7
:100D2000A00D611D221F749F3327A00D611D231F7D
:100D3000849F600D211D822F762F6A2F11249F57CB
:100D400050409AF0F1F088234AF0EE0FFF1FBB1FCE
:100D5000661F771F881F91505040A9F79E3F51058D
:100D600080F00C9405060C9450065F3FE4F3983E27
:100D7000D4F3869577956795B795F795E7959F5F37
:100D8000C1F7FE2B880F911D9695879597F90895C9
:100D90000E94E105880B990B0895A1E21A2EAA1B67
:100DA000BB1BFD010DC0AA1FBB1FEE1FFF1FA2171B
:100DB000B307E407F50720F0A21BB30BE40BF50B18
:100DC000661F771F881F991F1A9469F760957095A1
:100DD000809590959B01AC01BD01CF010895EE0F68
:0E0DE000FF1F0590F491E02D0994F894FFCFC9
:100DEE0000000000FF005F008C004C01BD009B0066
:100DFE00AF006E616E00696E66006F7666005445D8
:100E0E004D5052415455524520696E2043656C73C6
:100E1E00697573203D20002A4300202020207C206D
:100E2E002020200054454D50524154555245203DEE
:080E3E0020002A46000D0A0005
:00000001FF
